:020000040000FA
:100000000C9463000C948B000C948B000C948B006C
:100010000C948B000C948B000C948B000C948B0034
:100020000C948B000C948B000C948B000C94E00AC5
:100030000C948B000C948B000C948B000C948B0014
:100040000C943E0A0C948B000C94AE0A0C94880A13
:100050000C948B000C948B000C948B000C948B00F4
:100060000C948B000C948B000000000024002700EF
:100070002A0000000000250028002B0000000008D6
:10008000000201000003040700000000000000005F
:1000900000000000230026002900040404040404D6
:1000A0000404020202020202030303030303010227
:1000B00004081020408001020408102001020408F6
:1000C0001020DA0D2D1111241FBECFEFD8E0DEBFB6
:1000D000CDBF11E0A0E0B1E0E6E4FAE202C0059095
:1000E0000D92AC3DB107D9F723E0ACEDB1E001C012
:1000F0001D92AD35B207E1F710E0C2E6D0E004C0D2
:100100002197FE010E94EB13C136D107C9F70E9467
:10011000010F0C9416150C94000090E0FC01E458BB
:10012000FF4F2491FC01E255FF4F3491FC01E6564C
:10013000FF4FE491EE23C9F0222339F0233001F17F
:10014000A8F4213019F1223029F1F0E0EE0FFF1F61
:10015000EE58FF4FA591B4918FB7F894EC916111CF
:1001600026C030953E233C938FBF08952730A9F0D9
:100170002830C9F0243049F7809180008F7D03C07A
:10018000809180008F7780938000DFCF84B58F7758
:1001900084BDDBCF84B58F7DFBCF8091B0008F779E
:1001A0008093B000D2CF8091B0008F7DF9CF3E2BED
:1001B000DACFCF93DF9390E0FC01E255FF4F24911B
:1001C00086569F4FFC0184918823D1F090E0880FE0
:1001D000991FFC01E859FF4FA591B491FC01EE581D
:1001E000FF4FC591D49161110EC09FB7F8948C91C7
:1001F000E22FE0958E238C932881E223E8839FBF32
:10020000DF91CF9108958FB7F894EC91E22BEC93A6
:100210008FBFF6CF3FB7F8948091DE019091DF0158
:10022000A091E001B091E10126B5A89B05C02F3F48
:1002300019F00196A11DB11D3FBFBA2FA92F982F0C
:100240008827BC01CD01620F711D811D911D42E007
:10025000660F771F881F991F4A95D1F70895CF928F
:10026000DF92EF92FF928091BE029091BF02A09127
:10027000C002B091C102892B8A2B8B2BA9F18091EE
:10028000C2029091C302892B61F52FB7F894609157
:10029000E2017091E3018091E4019091E5012FBFAB
:1002A000C090BA02D090BB02E090BC02F090BD02B8
:1002B0006C197D098E099F0921E0C090BE02D09083
:1002C000BF02E090C002F090C1026C157D058E0562
:1002D0009F0508F020E0822FFF90EF90DF90CF90F5
:1002E00008950E940A01DCCF1092BA021092BB025C
:1002F0001092BC021092BD021092C3021092C20270
:10030000E9CFAF92BF92CF92DF92EF92FF920F931D
:100310001F93CF93DF936C017B018B01040F151F9B
:10032000EB015E01AE18BF08C017D10759F0699103
:10033000D601ED91FC910190F081E02DC601099567
:10034000892B79F7C501DF91CF911F910F91FF9014
:10035000EF90DF90CF90BF90AF900895FC01538D48
:10036000448D252F30E0842F90E0821B930B54178F
:1003700010F0CF96089501970895FC01918D828D1C
:10038000981761F0A28DAE0FBF2FB11D5D968C91B5
:10039000928D9F5F9F73928F90E008958FEF9FEFF4
:1003A0000895FC01918D828D981731F0828DE80FB0
:1003B000F11D858D90E008958FEF9FEF0895FC016A
:1003C000918D228D892F90E0805C9F4F821B910937
:1003D0008F739927089586EE91E00E94DF0121E056
:1003E000892B09F420E0822F089580E090E0892B8A
:1003F00029F00E94EB0181110C9400000895FC018A
:10040000A48DA80FB92FB11DA35ABF4F2C91848D75
:1004100090E001968F739927848FA689B7892C93D2
:10042000A089B1898C91837080648C93938D848D25
:10043000981306C00288F389E02D80818F7D808328
:100440000895EF92FF920F931F93CF93DF93EC01E8
:1004500081E0888F9B8D8C8D98131AC0E889F9896B
:10046000808185FF15C09FB7F894EE89FF8960836E
:10047000E889F98980818370806480839FBF81E0EF
:1004800090E0DF91CF911F910F91FF90EF90089531
:10049000F62E0B8D10E00F5F1F4F0F731127E02E0C
:1004A0008C8D8E110CC00FB607FCFACFE889F98944
:1004B000808185FFF5CFCE010E94FF01F1CFEB8D4A
:1004C000EC0FFD2FF11DE35AFF4FF0829FB7F89418
:1004D0000B8FEA89FB8980818062CFCFCF93DF9336
:1004E000EC01888D8823B9F0AA89BB89E889F9894C
:1004F0008C9185FD03C0808186FD0DC00FB607FC81
:10050000F7CF8C9185FFF2CF808185FFEDCFCE01B3
:100510000E94FF01E9CFDF91CF910895CF92DF9242
:10052000EF92FF92CF93DF93EC010E940A016B01DF
:100530007C0188A599A5AAA5BBA5B701A601481B62
:10054000590B6A0B7B0B8B819C81AD81BE81481757
:1005500059076A077B0748F188899989AA89BB8965
:100560002A812223F1F00196A11DB11D888B998B60
:10057000AA8BBB8B488959896A897B89E881F98173
:100580000484F585E02DCE010995C8A6D9A6EAA672
:10059000FBA681E0DF91CF91FF90EF90DF90CF90AD
:1005A00008950197A109B109E1CF80E0F3CFCF937E
:1005B000DF93FC012781222359F1EC0161E0808562
:1005C0000E94D90061E089850E94D9008F81843022
:1005D00011F08830B1F461E08A850E94D90061E0B1
:1005E0008B850E94D9008FA58F3F91F061E00E941A
:1005F000D9006EA581E068278FA5DF91CF910C947B
:100600008D00833011F0863071F761E08A85E9CF83
:10061000DF91CF910895CF93DF93FC0127812223AF
:10062000A9F0EC010190F081E02D0284F385E02D2A
:1006300060E009958FA58F3F49F061E00E94D900E5
:100640006EA58FA5DF91CF910C948D00DF91CF9196
:100650000895DC01ED91FC91228533854770552783
:1006600066277727415051096109710947305105C3
:100670006105710560F4FA01E05CFC4F0C94EB132A
:100680004A034C034E03500352035403560361E0E4
:10069000F901099465E0FCCF64E0FACF66E0F8CF99
:1006A00062E0F6CF6AE0F4CF68E0F2CF69E0F0CF25
:1006B000CF93DF93EC01CB01BA0126E030E040E0BC
:1006C00050E00E943E11623071058105910589F16B
:1006D0006CF46115710581059105D1F061307105EA
:1006E00081059105F9F0DF91CF910895643071058E
:1006F0008105910561F124F1653071058105910550
:1007000091F7E881F9810284F385E02D66E006C067
:10071000E881F9810284F385E02D64E0CE01DF9168
:10072000CF910994E881F9810284F385E02D65E099
:10073000F5CFE881F9810284F385E02D61E0EECF09
:10074000E881F9810284F385E02D63E0E7CFE88159
:10075000F9810284F385E02D62E0E0CFDC01ED91C8
:10076000FC910284F385E02D437055276627772797
:10077000423051056105710571F043305105610545
:10078000710559F0413051056105710511F065E0C1
:10079000099466E0FDCF6AE0FBCF69E0F9CFCF9323
:1007A000DF93EC01CB01BA0123E030E040E050E000
:1007B0000E943E11613071058105910599F062300A
:1007C000710581059105A9F0672B682B692BC1F490
:1007D000E881F9810284F385E02D64E0CE01DF91A8
:1007E000CF910994E881F9810284F385E02D61E0DD
:1007F000F5CFE881F9810284F385E02D62E0EECF48
:10080000DF91CF910895DC01ED91FC910284F38595
:10081000E02D437055276627772742305105610543
:10082000710571F0433051056105710559F0413092
:1008300051056105710511F062E0099463E0FDCF97
:1008400061E0FBCF60E0F9CFCF93DF93EC01E8816B
:10085000F9810284F385E02D8A8160E0811162E0F4
:10086000CE010995E881F9810284F385E02D8A8122
:1008700061E0811163E0CE0109958CA59DA58230D0
:10088000910538F0880F991F880F991F05970197D8
:10089000F1F7E881F9810284F385E02D8A8160E037
:1008A000811162E0CE01DF91CF910994CF93DF9364
:1008B000EC0120E030E0A901688D798D8A8D9B8D57
:1008C0000E946D1318162CF4E8A9F9A9DF91CF91B5
:1008D0000994EAA9FBA9FACFCF92DF92EF92FF9297
:1008E0000F931F93CF93DF93DC011796CC91C43005
:1008F00039F0C83059F1C33019F0C63049F1C2E0BF
:100900008C01085F1F4FF12CE12CC62ED12CD1E0B9
:10091000F8016481C6010E2C02C0959587950A9452
:10092000E2F780FD6D270F5F1F4F80810E948D00D1
:10093000BFEFEB1AFB0AEC1658F3DF91CF911F9132
:100940000F91FF90EF90DF90CF900895C4E0D8CF43
:10095000C3E0D6CFDC011796EC911797E93008F089
:1009600038C0F0E0EA54FB4F0C94EB13BF04C5040D
:10097000CB04D104D704E904DD04E904E304ED91D8
:10098000FC910684F785E02D0994ED91FC91008897
:10099000F189E02DF9CFED91FC910288F389E02DEA
:1009A000F3CFED91FC910488F589E02DEDCFED9129
:1009B000FC910688F789E02DE7CFED91FC91008C42
:1009C000F18DE02DE1CFED91FC91028CF38DE02DC6
:1009D000DBCF08954F925F926F927F92AF92BF925A
:1009E000CF92DF92EF92FF920F931F93CF93DF93FB
:1009F000EC015A018B019A01AB01688D798D8A8DCA
:100A00009B8D0E940E12882379F14C8C5D8C6E8C2C
:100A10007F8C73016201F7FAF094F7F8F094A70164
:100A20009601B501C8010E940E1287FD0CC0A301FA
:100A30009201B501C8010E946D137301620118167D
:100A400014F06501780120E030E0A901C701B6018A
:100A50000E940E12811117C01B821C821D821E82F1
:100A6000C88ED98EEA8EFB8EDF91CF911F910F91A8
:100A7000FF90EF90DF90CF90BF90AF907F906F90FE
:100A80005F904F900895A701960160E074E284E7BB
:100A900099E40E9413129F770E948C126B837C83CF
:100AA0008D839E8311E020E030E0A901C701B601EB
:100AB0000E946D1318160CF010E01A83D1CF4F92DC
:100AC0005F926F927F928F929F92AF92BF92CF92DE
:100AD000DF92EF92FF920F931F93CF93DF93EC017E
:100AE000CC88DD88EE88FF8888899989AA89BB89A6
:100AF000C81AD90AEA0AFB0A688D798D8A8D9B8DFE
:100B00009B01AC010E9472134B015C0168A179A1A9
:100B10008AA19BA19B01AC010E94A2119B01AC0187
:100B2000C501B4010E9413120E948512C114D104A0
:100B3000E104F10409F0B6C0623071058105910548
:100B40000CF0D0C01B821C821D821E82188E198E52
:100B50001A8E1B8E1CAA1DAA1EAA1FAAC12CD12C3C
:100B60007601C701B601DF91CF911F910F91FF90E0
:100B7000EF90DF90CF90BF90AF909F908F907F903D
:100B80006F905F904F90089510161106120613068D
:100B9000B4F46C157D058E059F051CF42A81211186
:100BA000A1C09B01AC0188279927DC01821B930B14
:100BB000A40BB50B8CAB9DABAEABBFAB93C001151B
:100BC00011052105310509F48DC06C157D058E05D3
:100BD0009F050CF087C08A81882309F483C0309573
:100BE0002095109501951F4F2F4F3F4F0CAB1DAB1C
:100BF0002EAB3FAB77C0011511052105310509F476
:100C000071C08824992454018C189D08AE08BF082F
:100C1000681579058A059B050CF064C08A818111ED
:100C200061C0DDCFCCACDDACEEACFFACA701960172
:100C3000C701B6010E94A2112B013C01C501B401FC
:100C40000E94BD1220E030E040E850E40E947213A0
:100C500020E030E040E85FE30E94A2119B01AC017C
:100C6000C301B2010E9413129B01AC01C701B6017E
:100C70000E94A1113B016C01FE01E05CFF4FE0808E
:100C8000F180028113819701A8010E946D1318164B
:100C900014F473018601C701D8018CAF9DAFAEAFCC
:100CA000BFAF3AC00CA91DA92EA93FA91C141D0451
:100CB0001E041F040CF468CF10161106120613064A
:100CC0000CF099CF0027112798010C191D092E0946
:100CD0003F0960177107820793070CF062CF2A81E2
:100CE00021115FCF8CA89DA8AEA8BFA88114910444
:100CF000A104B10409F096CF88AD99ADAAADBBAD02
:100D00008CAF9DAFAEAFBFAF81E01C141D041E04BD
:100D10001F040CF080E08A833FEF831A930AA30A32
:100D2000B30A8CAA9DAAAEAABFAA8CAC9DACAEACED
:100D3000BFACC501B4010E948C126B017C01CB8257
:100D4000DC82ED82FE82A501940160E074E284E71A
:100D500099E40E941312688F798F8A8F9B8F2A8162
:100D60002111FFCE9058688F798F8A8F9B8FF9CE93
:100D700008950895CF92DF92EF92FF920F931F9301
:100D8000CF93DF93EC016A017B01188A198A1A8AD2
:100D90001B8A1C8A1D8A1E8A1F8A1CAA1DAA1EAABB
:100DA0001FAA1B821C821D821E82188E198E1A8E0B
:100DB0001B8EFC01EC5BFF4F8081882339F160E0E2
:100DC00070EC8EEF94E4A90198010E9472130E94C6
:100DD0008512611571058105910559F06C8B7D8B2C
:100DE0008E8B9F8BE881F9810084F185E02DCE0107
:100DF0000995B701A601CE01DF91CF911F910F9107
:100E0000FF90EF90DF90CF900C94EA0460E070ECDC
:100E10008EEF94ECD8CFCF92DF92EF92FF920F93A8
:100E20001F93CF93DF93EC016A017B01188A198A23
:100E30001A8A1B8A1C8A1D8A1E8A1F8A1CAA1DAA3E
:100E40001EAA1FAA1B821C821D821E82188E198E4A
:100E50001A8E1B8EFC01EC5BFF4F8081882339F1D9
:100E600060E070EC8EEF94ECA90198010E9472137F
:100E70000E948512611571058105910559F06C8BF1
:100E80007D8B8E8B9F8BE881F9810084F185E02D2D
:100E9000CE010995B701A601CE01DF91CF911F9137
:100EA0000F91FF90EF90DF90CF900C94EA0460E0F8
:100EB00070EC8EEF94E4D8CFCF92DF92EF92FF9256
:100EC0000F931F93CF93DF936B017C01C4E5D3E0B5
:100ED000488159816A817B819C0186018AEC92E07C
:100EE0000E940B07488159816A817B8197018FE0BD
:100EF00093E00E940B0781E080935803DF91CF912C
:100F00001F910F91FF90EF90DF90CF900895CF92B7
:100F1000DF92EF92FF920F931F93CF93DF9320E026
:100F200030E040E05FE30E9472136B017C01C4E596
:100F3000D3E0488159816A817B819C0186018AECDA
:100F400092E00E94BA06488159816A817B819701AB
:100F50008FE093E00E940B0781E080935803DF91BC
:100F6000CF911F910F91FF90EF90DF90CF90089558
:100F7000CF92DF92EF92FF920F931F93CF93DF9365
:100F800020E030E040E05FE30E9472136B017C01DF
:100F9000C4E5D3E0488159816A817B819C01860147
:100FA0008AEC92E00E940B07488159816A817B811B
:100FB00097018FE093E00E94BA0681E08093580386
:100FC000DF91CF911F910F91FF90EF90DF90CF9025
:100FD00008950F931F93E091C7028E2F90E0FC01BC
:100FE000EE0FFF1FE80FF91FED57FD4F808186FFC1
:100FF0002CC00E942F01811193C01092BA0210924E
:10100000BB021092BC021092BD021092BE0210925E
:10101000BF021092C0021092C1021092C30210923D
:10102000C2028091C5028093C4021092C502E09171
:10103000C7028E2F90E0FC01EE0FFF1FE80FF91F93
:10104000ED57FD4F80818F7B8083F89461E0809124
:10105000B0020E94D90060E08091B0020E948D0031
:101060008FE090E00197F1F760E08091B0020E947C
:10107000D90061E08091B1020E948D0083E290E08E
:101080000197F1F760E08091B1020E948D0080919C
:10109000B00290E0FC01E255FF4F6491FC01E6567E
:1010A000FF4FE491F0E0EE0FFF1FE057FF4F8591F7
:1010B00094910091AC021091AD022091AE0230915A
:1010C000AF023F70462F0E949C0B61157105810590
:1010D000910529F06F5F7F4F8F4F9F4F9F707894DE
:1010E0000091AC021091AD022091AE023091AF029E
:1010F000061717072807390718F460E070E0CB01DE
:1011000024E930E040E050E00E943E112115310515
:1011100021F03093AA022093A9021092AB0280E042
:101120001F910F9108958F929F92AF92BF92FF925D
:101130000F931F93CF93DF93C82F8093A802E09162
:10114000C7028E2F90E0FC01EE0FFF1FE80FF91F82
:10115000ED57FD4F808186FD0FC0C093C5022091E1
:10116000C402822F90E06C2F70E02C17B8F09C0125
:10117000261B370BB90114C00E942F01882369F385
:1011800081E08093AB02DF91CF911F910F91FF908F
:10119000BF90AF909F908F900C94E907681B790BDC
:1011A000072E000C880B990B0E94BD122091B202F1
:1011B0003091B3024091B4025091B5020E94721373
:1011C0000E948C124B015C018091C2029091C3027B
:1011D000892B09F0E9C02FB7F8948091E201909132
:1011E000E301A091E401B091E5012FBF8093BA0221
:1011F0009093BB02A093BC02B093BD028092BE024A
:101200009092BF02A092C002B092C1028091C70228
:101210008C3008F06FC0C091B802D091B902009133
:10122000B6021091B702F090C60261E08F2D0E94C5
:10123000D9002091C702822F90E0FC01EE0FFF1F22
:10124000E80FF91FED57FD4F9F2D9F738081807C24
:10125000892B808380E292E0801B910B97FD03969F
:1012600095958795959587958093C80280E699E036
:101270008C1B9D0B97FD0396959587959595879566
:101280008093C9023CE0822F632F0E94DF13839F6B
:10129000B001112450E040E0DB01A40FB51FFD01B7
:1012A000EE0FFF1FEA0FFB1FED57FD4F908196FDDC
:1012B00016C04F5F5F4F4C30510571F781110FC061
:1012C0001092800082E0809381001092850010923D
:1012D0008400B19A80916F00826080936F0030E04B
:1012E000F901EE0FFF1FE20FF31FED57FD4F808155
:1012F00080648083F090C7023BE03F1508F440CF44
:101300008091C90208E512E0081B110987FD1395B9
:10131000000F111F000F111F8091C802C8E8D0E014
:10132000C81BD10987FDD395CC0FDD1FCC0FDD1F66
:101330004E010D2E000CAA08BB08A091C502B0E01A
:10134000A53BB10514F0A4EBB0E09801012E000C10
:10135000440B550B281939094A095B090E94681189
:1013600024EB30E040E050E00E943E11820E931EDC
:10137000A41EB51E8C169D062CF0E8018016910661
:101380000CF4E4012297CC0FDD1F2FB7F8948F2DBA
:1013900090E0FC01EE0FFF1FE80FF91FED57FD4F26
:1013A000D283C1832FBFECCE0E940A016093BA02A0
:1013B0007093BB028093BC029093BD021FCF8F92AB
:1013C0009F92AF92BF920F931F93CF93DF93CDB7AE
:1013D000DEB7A1970FB6F894DEBF0FBECDBF19A23E
:1013E000423008F44AE08E010F5D1F4F842E912C8D
:1013F000B12CA12CA50194010E947011E62FB90116
:10140000CA01EA3044F5E05DD801EE938D01232B4B
:10141000242B252B79F790E080E0109769F0FD01EF
:1014200001900020E9F73197AF014A1B5B0BBD012A
:1014300086EE91E00E948101A1960FB6F894DEBF7E
:101440000FBECDBFDF91CF911F910F91BF90AF9095
:101450009F908F900895E95CD7CFFC010190002008
:10146000E9F73197AF01481B590BBC0186EE91E0BB
:101470000C9481010C948D140C948D141F920F9276
:101480000FB60F9211242F933F938F939F93AF9397
:10149000BF938091E2019091E301A091E401B091AA
:1014A000E5013091DD0123E0230F2D3758F501963A
:1014B000A11DB11D2093DD018093E2019093E30112
:1014C000A093E401B093E5018091DE019091DF01EA
:1014D000A091E001B091E1010196A11DB11D8093A1
:1014E000DE019093DF01A093E001B093E101BF9191
:1014F000AF919F918F913F912F910F900FBE0F90C1
:101500001F90189526E8230F0296A11DB11DD2CF7A
:101510001F920F920FB60F9211242F933F934F9368
:101520005F936F937F938F939F93AF93BF93EF934B
:10153000FF9386EE91E00E94FF01FF91EF91BF9132
:10154000AF919F918F917F916F915F914F913F915B
:101550002F910F900FBE0F901F9018951F920F9212
:101560000FB60F9211242F938F939F93EF93FF93B6
:10157000E091F601F091F7018081E091FC01F0919A
:10158000FD0182FD1BC090818091FF018F5F8F73F1
:1015900020910002821741F0E091FF01F0E0EA5152
:1015A000FE4F958F8093FF01FF91EF919F918F9157
:1015B0002F910F900FBE0F901F9018958081F4CF40
:1015C0001F920F920FB60F9211242F933F934F93B8
:1015D0005F936F937F938F939F93AF93BF93CF93BB
:1015E000DF93EF93FF938091DC01C091A702D0E0DD
:1015F00087FF24C010928500109284008091DC0146
:101600008F5F8093DC018091DC01082E000C990B28
:101610008C179D0724F48091DC018C30C4F18091FB
:10162000840090918500049680349C4908F47AC027
:101630008091840090918500049676C08091DC01B1
:10164000082E000C990B8C179D07C4F6E091DC0165
:101650008E2FEE0F990BFC01EE0FFF1FE80FF91F05
:10166000ED57FD4F808186FFC9CFE091DC018E2FC1
:10167000EE0F990BFC01EE0FFF1FE80FF91FED575E
:10168000FD4F808160E08F730E948D00B7CF209165
:10169000840030918500E091DC018E2FEE0F990BD4
:1016A000FC01EE0FFF1FE80FF91FED57FD4F818181
:1016B0009281820F931F9093890080938800E0911C
:1016C000DC018E2FEE0F990BFC01EE0FFF1FE80FD0
:1016D000F91FED57FD4F808186FF11C0E091DC01BD
:1016E0008E2FEE0F990BFC01EE0FFF1FE80FF91F75
:1016F000ED57FD4F808161E08F730E948D00FF9157
:10170000EF91DF91CF91BF91AF919F918F917F9199
:101710006F915F914F913F912F910F900FBE0F905E
:101720001F90189580E49CE990938900809388002D
:101730008FEF8093DC01E3CFCF92DF92EF92FF92A5
:101740000F931F93E82FF92F05C0015011092109AC
:10175000310961F1908196239417B9F305C00150C6
:1017600011092109310911F1908196239413F7CFC2
:10177000C12CD12CE12CF12C0AC08FEFC81AD80A49
:10178000E80AF80A0C151D052E053F0579F0808141
:101790008623841791F36C2D7D2D8E2D9F2D1F9107
:1017A0000F91FF90EF90DF90CF90089560E070E090
:1017B00080E090E01F910F91FF90EF90DF90CF902D
:1017C0000895CF92DF92EF92FF92CF93DF93EC01D7
:1017D000688D798D8A8D9B8D9B01AC010E9472135F
:1017E0006B017C0168A179A18AA19BA19B01AC013D
:1017F0000E94A2119B01AC01C701B6010E94131205
:101800000E9485126CAB7DAB8EAB9FABE881F981FA
:101810000084F185E02DCE01DF91CF91FF90EF9014
:10182000DF90CF900994CF93DF93FC01DB011296F8
:101830008C911297828313964D915D916D917C915D
:101840001697438354836583768317968C911797F5
:101850008783BF01685F7F4FCD0108969F01245F9A
:101860003F4FEC014991CE01EB014993BE01C217F4
:10187000D307B9F7CD010C969F01205F3F4FEC01D4
:101880004991CE01EB014993BE012C173D07B9F7F1
:1018900050964D915D916D917C915397408B518BFA
:1018A000628B738B54964D915D916D917C9157979E
:1018B000448B558B668B778B58964D915D916D91CE
:1018C0007C915B97408F518F628F738F5C964D91A7
:1018D0005D916D917C915F97448F558F668F778F67
:1018E00090964D915D916D917C91939740A351A3FA
:1018F00062A373A394964D915D916D917C9197979E
:1019000044A355A366A377A398964D915D916D91DD
:101910007C919B9740A751A762A773A79C968D9136
:101920009C919D9795A784A79E968C919E9786A73C
:101930009F968C919F9787A7D0968D919C91D197D8
:1019400091AB80ABD2968D919C91D39793AB82ABA8
:10195000D4964D915D916D917C91D79744AB55ABE9
:1019600066AB77ABD8964D915D916D917C91DB978D
:1019700040AF51AF62AF73AFDC964D915D916D9109
:101980007C91DF9744AF55AF66AF77AFA05CBF4F98
:101990004D915D916D917C91DF01A05CBF4F4D93A6
:1019A0005D936D937C931397CF01DF91CF91089551
:1019B0007F928F929F92AF92BF92CF92DF92EF92DF
:1019C000FF920F931F93CF93DF93EC01722E88E168
:1019D00091E09983888384E08F83188A198A1A8A10
:1019E0001B8A1C8A1D8A1E8A1F8A188E198E1A8EBF
:1019F0001B8E1C8E1D8E1E8E1F8E18A219A21AA25F
:101A00001BA2C12CD12C80E8E82E8FE3F82ECCA2AB
:101A1000DDA2EEA2FFA21B821C821D821E8281E03B
:101A200090E09DA78CA78FEF8FA718A619A61AA6DE
:101A30001BA6488769875A877B871EA61CAA1DAAF2
:101A40001EAA1FAA18AE19AE1AAE1BAE1CAE1DAE52
:101A50001EAE1FAE8E01005C1F4FF801C082D18206
:101A6000E282F3821A821C861D861E861F86CE01A4
:101A70000E94D70288A099A0AAA0BBA0A7019601A6
:101A8000C501B4010E940E128823F9F06CA97DA94A
:101A90008EA99FA90E94BD12A50194010E947213F4
:101AA0000E9485126CAB7DAB8EAB9FAB86E896E651
:101AB000A9E6B9E488AF99AFAAAFBBAFC8A2D9A2D3
:101AC000EAA2FBA2CE010E945F0520E030E040E8E0
:101AD0005FE36C8D7D8D8E8D9F8D0E940E1288230D
:101AE000E9F080E090E0A0E8BFE38C8F9D8FAE8F9F
:101AF000BF8F80E094E2A4E7B9E4F801808391838A
:101B0000A283B3838CA99DA9AEA9BFA918161906F3
:101B10001A061B061CF4CE010E94E10B88E391E03B
:101B200099838883FE01EC5BFF4F708220E030E0F8
:101B30004AEF54E46C8D7D8D8E8D9F8D0E940E1228
:101B4000882351F180E090E0AAEFB4E48C8F9D8F60
:101B5000AE8FBF8F80E090E0AAEFB3E4F8018083FE
:101B60009183A283B3838CA99DA9AEA9BFA918169E
:101B700019061A061B0684F4CE01DF91CF911F913E
:101B80000F91FF90EF90DF90CF90BF90AF909F901C
:101B90008F907F900C94E10BDF91CF911F910F916B
:101BA000FF90EF90DF90CF90BF90AF909F908F907D
:101BB0007F900895CF92DF92EF92FF92CF93DF93C1
:101BC000CDB7DEB7C554D1090FB6F894DEBF0FBE4E
:101BD000CDBF1092E9011092E80188EE93E0A0E0F9
:101BE000B0E08093EA019093EB01A093EC01B093F5
:101BF000ED018AE691E09093E7018093E60185ECA0
:101C000090E09093F3018093F20184EC90E0909344
:101C1000F5018093F40180EC90E09093F7018093BC
:101C2000F60181EC90E09093F9018093F80182EC49
:101C300090E09093FB018093FA0186EC90E0909302
:101C4000FD018093FC011092FF011092000210929E
:101C5000010210920202C0901001D0901101E09098
:101C60001201F090130120E0B701A6018AEC92E086
:101C70000E94D80C20E0B701A6018FE093E00E94FB
:101C8000D80C4091060150910701609108017091B4
:101C9000090121E0CE0101960E94D80CBE016F5FC0
:101CA0007F4F8AEC92E00E94130C26968FAD269708
:101CB00080930E0340910201509103016091040151
:101CC0007091050120E0CE0101960E94D80CBE0162
:101CD0006F5F7F4F8FE093E00E94130C26968FADCD
:101CE00026978093530380E090E0A6E1B4E48093CC
:101CF000540390935503A0935603B0935703109247
:101D000058031092A8021092AA021092A9021092EF
:101D1000AB0280EF9AE5A0E0B0E08093AC02909334
:101D2000AD02A093AE02B093AF0283E18093B00204
:101D300082E18093B10260E083E10E94D90080914A
:101D4000B102882319F061E00E94D90084EA90E78B
:101D5000A5EDB0E48093B2029093B302A093B402D5
:101D6000B093B50284EF91E09093B7028093B602EE
:101D700084EC99E09093B9028093B8021092BA0271
:101D80001092BB021092BC021092BD021092BE02D1
:101D90001092BF021092C0021092C1021092C302B0
:101DA0001092C2021092C4021092C50289E0809380
:101DB000C6028091A7028C3000F591E0980F9093B5
:101DC000A7028093C70290E0FC01EE0FFF1FE80F0F
:101DD000F91FED57FD4F88EB9BE092838183CB5B2E
:101DE000DF4F0FB6F894DEBF0FBECDBFDF91CF91AE
:101DF000FF90EF90DF90CF9008958FEF8093C70210
:101E0000EECF789484B5826084BD84B5816084BD52
:101E100085B5826085BD85B5816085BD80916E0088
:101E2000816080936E0010928100809181008260B9
:101E300080938100809181008160809381008091F6
:101E400080008160809380008091B10084608093E5
:101E5000B1008091B00081608093B00080917A00E1
:101E6000846080937A0080917A00826080937A0007
:101E700080917A00816080937A0080917A008068F6
:101E800080937A001092C1000E940A014B015C010C
:101E900030EDC32E37E0D32EE12CF12C0E940A0145
:101EA000681979098A099B09683E73408105910583
:101EB000A8F321E0C21AD108E108F10888EE880EE3
:101EC00083E0981EA11CB11CC114D104E104F104EB
:101ED00029F7E091F601F091F70182E08083E0912B
:101EE000F201F091F3011082E091F401F091F5011B
:101EF0008FEC80831092FE01E091FA01F091FB01DA
:101F000086E08083E091F801F091F90180818061A1
:101F10008083E091F801F091F901808188608083ED
:101F2000E091F801F091F901808180688083E0916F
:101F3000F801F091F90180818F7D80838AE50E940C
:101F400093088091AB02811101C0FFCF0E94E90785
:101F50008823B9F3C0E0D0E03324339494E0E92E31
:101F6000F12C26E0C22ED12C8091AB0281110E946F
:101F7000E90710915803112309F488C04091DE024B
:101F80005091DF026091E0027091E1028091DA02EB
:101F90009091DB02A091DC02B091DD024817590755
:101FA0006A077B07C1F084179507A607B7070CF0EF
:101FB000B1C03092CC028091CD029091CE02A0911E
:101FC000CF02B091D002892B8A2B8B2B21F08AEC87
:101FD00092E00E948E02409123035091240360916D
:101FE00025037091260380911F0390912003A091F7
:101FF0002103B0912203481759076A077B07C1F0F4
:1020000084179507A607B7070CF087C03092110315
:102010008091120390911303A0911403B0911503C2
:10202000892B8A2B8B2B21F08FE093E00E948E026C
:10203000409123035091240360912503709126035E
:1020400080911F0390912003A0912103B09122035E
:102050008090DE029090DF02A090E002B090E1025A
:102060004090DA025090DB026090DC027090DD025A
:1020700084149504A604B70439F411E048175907ED
:102080006A077B0709F410E0109358038091580306
:10209000811188C0809100019091010109970CF095
:1020A00081C088E791E00E942D0A6091A80270E04B
:1020B00090E080E04AE00E94DF0982E891E00E941F
:1020C0002D0A6091A9027091AA0290E080E04AE096
:1020D0000E94DF096AE086EE91E00E942102E09111
:1020E0000001F0910101EE0FFF1FEC5AFE4F01902D
:1020F000F081E02DE830F10508F049C0EE57FF4EC1
:102100000C94EB139010A610B110BA10DD10E9106A
:10211000F51001111092CC024ECF1092110378CF1E
:102120008EE891E00E942D0A40E050E0BA018AEC6E
:1021300092E00E94EA0440E050E0BA018FE093E0B0
:102140000E94EA04109258038AE51FC089E991E0D1
:102150000E942D0A60E070E080E89FE30E945C0727
:10216000F3CF84E991E00E942D0A60E070E080E006
:102170009FE3F4CF83EA91E00E942D0A60E070E0D3
:1021800080E09FE30E94870787E80E949308809180
:10219000000190910101049709F05AC0D092010109
:1021A000C0920001209709F4DFCE0E94EB01882342
:1021B00009F4DACE0E940000D7CE80EB91E00E94B5
:1021C0002D0A60E070E080E89FE30E94870784EBBF
:1021D000DCCF8AEB91E00E942D0A60E070E080E0A5
:1021E0009FE30E94B8078DE2D0CF88EC91E00E9477
:1021F0002D0A60E070E080E89FE30E94B80780E06D
:10220000C4CF83ED91E00E942D0A40915403509178
:102210005503609156037091570300E010E020E8E9
:102220003FE38AEC92E00E94BA0640915403509139
:102230005503609156037091570300E010E020E8C9
:102240003FE38FE093E00E94BA06309258037CCFC0
:10225000F0920101E0920001A5CFE091C7028E2F1C
:1022600090E0FC01EE0FFF1FE80FF91FED57FD4F47
:10227000808186FF02C08F7B80830895052E97FBA7
:102280001EF400940E94551157FD07D00E94701152
:1022900007FC03D04EF40C945511509540953095A1
:1022A00021953F4F4F4F5F4F0895909580957095C2
:1022B00061957F4F8F4F9F4F08950E949211A59F68
:1022C000900DB49F900DA49F800D911D1124089531
:1022D000B7FF0C945D110E945D11821B930B089552
:1022E000A1E21A2EAA1BBB1BFD010DC0AA1FBB1F1A
:1022F000EE1FFF1FA217B307E407F50720F0A21B8C
:10230000B30BE40BF50B661F771F881F991F1A94F8
:1023100069F760957095809590959B01AC01BD0122
:10232000CF010895A29FB001B39FC001A39F700D7C
:10233000811D1124911DB29F700D811D1124911DCD
:1023400008955058BB27AA270E94B9110C94331343
:102350000E94251338F00E942C1320F039F49F3F7F
:1023600019F426F40C9422130EF4E095E7FB0C9478
:102370001C13E92F0E94441358F3BA17620773071E
:102380008407950720F079F4A6F50C9466130EF4F3
:10239000E0950B2EBA2FA02D0B01B90190010C0175
:1023A000CA01A0011124FF27591B99F0593F50F48D
:1023B000503E68F11A16F040A22F232F342F4427E5
:1023C000585FF3CF469537952795A795F0405395DD
:1023D000C9F77EF41F16BA0B620B730B840BBAF0AD
:1023E0009150A1F0FF0FBB1F661F771F881FC2F718
:1023F0000EC0BA0F621F731F841F48F4879577952C
:102400006795B795F7959E3F08F0B0CF9395880FE5
:1024100008F09927EE0F9795879508950E94F81276
:1024200008F481E008950E9427120C9433130E944F
:102430002C1358F00E94251340F029F45F3F29F037
:102440000C941C1351110C9467130C9422130E94CA
:10245000441368F39923B1F3552391F3951B550B5E
:10246000BB27AA2762177307840738F09F5F5F4F67
:10247000220F331F441FAA1FA9F335D00E2E3AF0A6
:10248000E0E832D091505040E695001CCAF72BD0BE
:10249000FE2F29D0660F771F881FBB1F261737070F
:1024A0004807AB07B0E809F0BB0B802DBF01FF2741
:1024B00093585F4F3AF09E3F510578F00C941C13EF
:1024C0000C9467135F3FE4F3983ED4F386957795B9
:1024D0006795B795F7959F5FC9F7880F911D9695FA
:1024E000879597F90895E1E0660F771F881FBB1F56
:1024F000621773078407BA0720F0621B730B840B03
:10250000BA0BEE1F88F7E09508950E948C1268942C
:10251000B1110C94671308950E944C1388F09F57D3
:1025200098F0B92F9927B751B0F0E1F0660F771FF7
:10253000881F991F1AF0BA95C9F714C0B13091F0ED
:102540000E946613B1E008950C946613672F782FEC
:102550008827B85F39F0B93FCCF3869577956795B2
:10256000B395D9F73EF490958095709561957F4F1E
:102570008F4F9F4F0895E89409C097FB3EF49095C4
:102580008095709561957F4F8F4F9F4F9923A9F04C
:10259000F92F96E9BB279395F695879577956795DB
:1025A000B795F111F8CFFAF4BB0F11F460FF1BC01F
:1025B0006F5F7F4F8F4F9F4F16C0882311F096E9B2
:1025C00011C0772321F09EE8872F762F05C0662360
:1025D00071F096E8862F70E060E02AF09A95660F19
:1025E000771F881FDAF7880F9695879597F90895D2
:1025F000990F0008550FAA0BE0E8FEEF1616170614
:10260000E807F907C0F012161306E407F50798F07B
:10261000621B730B840B950B39F40A2661F0232B94
:10262000242B252B21F408950A2609F4A140A69510
:102630008FEF811D811D089597F99F6780E870E0F5
:1026400060E008959FEF80EC089500240A94161628
:10265000170618060906089500240A941216130690
:10266000140605060895092E0394000C11F488231E
:1026700052F0BB0F40F4BF2B11F460FF04C06F5F3A
:102680007F4F8F4F9F4F089557FD9058440F551F10
:1026900059F05F3F71F04795880F97FB991F61F0E4
:1026A0009F3F79F087950895121613061406551F5B
:1026B000F2CF4695F1DF08C0161617061806991FC7
:1026C000F1CF86957105610508940895E894BB27BC
:1026D00066277727CB0197F908950E94F81208F42E
:1026E0008FEF08950E9485130C9433130E942513D5
:1026F00038F00E942C1320F0952311F00C941C1339
:102700000C94221311240C9467130E94441370F349
:10271000959FC1F3950F50E0551F629FF001729F86
:10272000BB27F00DB11D639FAA27F00DB11DAA1F95
:10273000649F6627B00DA11D661F829F2227B00DE2
:10274000A11D621F739FB00DA11D621F839FA00D6D
:10275000611D221F749F3327A00D611D231F849FBD
:10276000600D211D822F762F6A2F11249F57504014
:102770009AF0F1F088234AF0EE0FFF1FBB1F661F8F
:10278000771F881F91505040A9F79E3F510580F058
:102790000C941C130C9467135F3FE4F3983ED4F33E
:1027A000869577956795B795F795E7959F5FC1F7FC
:1027B000FE2B880F911D9695879597F90895991B83
:1027C00079E004C0991F961708F0961B881F7A9528
:1027D000C9F780950895EE0FFF1F0590F491E02D45
:1027E00009940F931F93CF93DF938230910510F4D8
:1027F00082E090E0E0915B03F0915C0330E020E048
:10280000B0E0A0E0309799F42115310509F44AC0F1
:10281000281B390B24303105D8F58A819B8161153D
:10282000710589F1FB0193838283FE0111C0408110
:1028300051810281138148175907E0F04817590761
:1028400099F4109761F012960C93129713961C93BB
:102850003296CF01DF91CF911F910F910895009390
:102860005B0310935C03F4CF2115310551F042173F
:10287000530738F0A901DB019A01BD01DF01F8011E
:10288000C1CFEF01F9CF90935C0380935B03CDCF71
:10289000FE01E20FF31F8193919322503109398396
:1028A0002883D7CF2091590330915A03232B41F429
:1028B00020910C0130910D0130935A03209359035C
:1028C00020910A0130910B012115310541F42DB7FA
:1028D0003EB740910E0150910F01241B350BE09142
:1028E0005903F0915A03E217F307A0F42E1B3F0B94
:1028F0002817390778F0AC014E5F5F4F2417350772
:1029000048F04E0F5F1F50935A0340935903819331
:1029100091939FCFF0E0E0E09CCFCF93DF930097BF
:10292000E9F0FC01329713821282A0915B03B0910F
:102930005C03ED0130E020E01097A1F420813181AB
:10294000820F931F2091590330915A03281739079A
:1029500009F061C0F0935A03E0935903DF91CF91DE
:102960000895EA01CE17DF07E8F54A815B819E01F1
:1029700041155105B1F7E901FB83EA83499159916A
:10298000C40FD51FEC17FD0761F480819181029679
:10299000840F951FE90199838883828193819B83AA
:1029A0008A83F0E0E0E012968D919C911397009756
:1029B000B9F52D913C911197CD010296820F931F8D
:1029C0002091590330915A032817390739F6309767
:1029D00051F510925C0310925B03B0935A03A093DD
:1029E0005903BCCFD383C28340815181840F951F8B
:1029F000C817D90761F44E5F5F4F88819981480FEE
:102A0000591F518340838A819B819383828321153F
:102A1000310509F0B0CFF0935C03E0935B039ECFE8
:102A2000FD01DC01C0CF13821282D7CF10E0C2E6D5
:102A3000D0E004C0FE010E94EB132196C336D107FB
:102A4000C9F7F894FFCF0400040506070E0F101114
:102A500000005D03800003040506000000000B0376
:102A6000D702B8063C0A5F056C04AA045604240485
:102A70000304CF03AE0358032903000000000B0337
:102A8000D702B9063A0A5F056C04AA045604240466
:102A90000304CF03AE03580329030100040002001E
:102AA0000700050002000500010000000000000012
:102AB00021028101AE016E02DF01BD01D10142653B
:102AC0006172696E673A20002044697374616E63B5
:102AD000653A200053746F700A0053686F72745324
:102AE000747261696768740A00436F727265637417
:102AF0004C6566740A005475726E4C6566740A0003
:102B0000436F727265637452696768740A00547522
:102B1000726E52696768740A004261636B75700A6D
:022B20000000B3
:107E0000112484B714BE81FFF0D085E080938100F7
:107E100082E08093C00088E18093C10086E0809377
:107E2000C20080E18093C4008EE0C9D0259A86E02C
:107E300020E33CEF91E0309385002093840096BBD3
:107E4000B09BFECF1D9AA8958150A9F7CC24DD24C4
:107E500088248394B5E0AB2EA1E19A2EF3E0BF2EE7
:107E6000A2D0813461F49FD0082FAFD0023811F036
:107E7000013811F484E001C083E08DD089C08234E0
:107E800011F484E103C0853419F485E0A6D080C0E4
:107E9000853579F488D0E82EFF2485D0082F10E0AE
:107EA000102F00270E291F29000F111F8ED06801E7
:107EB0006FC0863521F484E090D080E0DECF843638
:107EC00009F040C070D06FD0082F6DD080E0C81688
:107ED00080E7D80618F4F601B7BEE895C0E0D1E017
:107EE00062D089930C17E1F7F0E0CF16F0E7DF06D8
:107EF00018F0F601B7BEE89568D007B600FCFDCFD4
:107F0000A601A0E0B1E02C9130E011968C91119780
:107F100090E0982F8827822B932B1296FA010C0160
:107F200087BEE89511244E5F5F4FF1E0A038BF0790
:107F300051F7F601A7BEE89507B600FCFDCF97BE46
:107F4000E89526C08437B1F42ED02DD0F82E2BD052
:107F50003CD0F601EF2C8F010F5F1F4F84911BD097
:107F6000EA94F801C1F70894C11CD11CFA94CF0C13
:107F7000D11C0EC0853739F428D08EE10CD085E9AC
:107F80000AD08FE07ACF813511F488E018D01DD067
:107F900080E101D065CF982F8091C00085FFFCCF94
:107FA0009093C60008958091C00087FFFCCF809118
:107FB000C00084FD01C0A8958091C6000895E0E648
:107FC000F0E098E1908380830895EDDF803219F02E
:107FD00088E0F5DFFFCF84E1DECF1F93182FE3DFCA
:107FE0001150E9F7F2DF1F91089580E0E8DFEE27F6
:047FF000FF270994CA
:027FFE00040479
:00000001FF
